{
  "contractName": "Dice",
  "abi": [
    {
      "anonymous": false,
      "inputs": [
        {
          "indexed": false,
          "internalType": "uint256",
          "name": "diceId",
          "type": "uint256"
        }
      ],
      "name": "luckytimesEvent",
      "type": "event"
    },
    {
      "anonymous": false,
      "inputs": [
        {
          "indexed": false,
          "internalType": "uint256",
          "name": "diceId",
          "type": "uint256"
        },
        {
          "indexed": false,
          "internalType": "uint8",
          "name": "newNumber",
          "type": "uint8"
        }
      ],
      "name": "rolled",
      "type": "event"
    },
    {
      "anonymous": false,
      "inputs": [
        {
          "indexed": false,
          "internalType": "uint256",
          "name": "diceId",
          "type": "uint256"
        }
      ],
      "name": "rolling",
      "type": "event"
    },
    {
      "constant": true,
      "inputs": [
        {
          "internalType": "uint256",
          "name": "",
          "type": "uint256"
        }
      ],
      "name": "dices",
      "outputs": [
        {
          "internalType": "uint8",
          "name": "numberOfSides",
          "type": "uint8"
        },
        {
          "internalType": "uint8",
          "name": "color",
          "type": "uint8"
        },
        {
          "internalType": "uint8",
          "name": "currentNumber",
          "type": "uint8"
        },
        {
          "internalType": "enum Dice.diceState",
          "name": "state",
          "type": "uint8"
        },
        {
          "internalType": "uint256",
          "name": "creationValue",
          "type": "uint256"
        },
        {
          "internalType": "address",
          "name": "owner",
          "type": "address"
        },
        {
          "internalType": "address",
          "name": "prevOwner",
          "type": "address"
        },
        {
          "internalType": "uint256",
          "name": "luckyTimes",
          "type": "uint256"
        }
      ],
      "payable": false,
      "stateMutability": "view",
      "type": "function"
    },
    {
      "constant": true,
      "inputs": [],
      "name": "numDices",
      "outputs": [
        {
          "internalType": "uint256",
          "name": "",
          "type": "uint256"
        }
      ],
      "payable": false,
      "stateMutability": "view",
      "type": "function"
    },
    {
      "constant": false,
      "inputs": [
        {
          "internalType": "uint8",
          "name": "numberOfSides",
          "type": "uint8"
        },
        {
          "internalType": "uint8",
          "name": "color",
          "type": "uint8"
        }
      ],
      "name": "add",
      "outputs": [
        {
          "internalType": "uint256",
          "name": "",
          "type": "uint256"
        }
      ],
      "payable": true,
      "stateMutability": "payable",
      "type": "function"
    },
    {
      "constant": false,
      "inputs": [
        {
          "internalType": "uint256",
          "name": "diceId",
          "type": "uint256"
        }
      ],
      "name": "roll",
      "outputs": [],
      "payable": false,
      "stateMutability": "nonpayable",
      "type": "function"
    },
    {
      "constant": false,
      "inputs": [
        {
          "internalType": "uint256",
          "name": "diceId",
          "type": "uint256"
        }
      ],
      "name": "stopRoll",
      "outputs": [],
      "payable": false,
      "stateMutability": "nonpayable",
      "type": "function"
    },
    {
      "constant": false,
      "inputs": [
        {
          "internalType": "uint256",
          "name": "diceId",
          "type": "uint256"
        },
        {
          "internalType": "address",
          "name": "newOwner",
          "type": "address"
        }
      ],
      "name": "transfer",
      "outputs": [],
      "payable": false,
      "stateMutability": "nonpayable",
      "type": "function"
    },
    {
      "constant": true,
      "inputs": [
        {
          "internalType": "uint256",
          "name": "diceId",
          "type": "uint256"
        }
      ],
      "name": "getDiceSides",
      "outputs": [
        {
          "internalType": "uint8",
          "name": "",
          "type": "uint8"
        }
      ],
      "payable": false,
      "stateMutability": "view",
      "type": "function"
    },
    {
      "constant": true,
      "inputs": [
        {
          "internalType": "uint256",
          "name": "diceId",
          "type": "uint256"
        }
      ],
      "name": "getDiceNumber",
      "outputs": [
        {
          "internalType": "uint8",
          "name": "",
          "type": "uint8"
        }
      ],
      "payable": false,
      "stateMutability": "view",
      "type": "function"
    },
    {
      "constant": true,
      "inputs": [
        {
          "internalType": "uint256",
          "name": "diceId",
          "type": "uint256"
        }
      ],
      "name": "getDiceValue",
      "outputs": [
        {
          "internalType": "uint256",
          "name": "",
          "type": "uint256"
        }
      ],
      "payable": false,
      "stateMutability": "view",
      "type": "function"
    },
    {
      "constant": true,
      "inputs": [
        {
          "internalType": "uint256",
          "name": "diceId",
          "type": "uint256"
        }
      ],
      "name": "getLuckyTimes",
      "outputs": [
        {
          "internalType": "uint256",
          "name": "",
          "type": "uint256"
        }
      ],
      "payable": false,
      "stateMutability": "view",
      "type": "function"
    },
    {
      "constant": true,
      "inputs": [
        {
          "internalType": "uint256",
          "name": "diceId",
          "type": "uint256"
        }
      ],
      "name": "getOwner",
      "outputs": [
        {
          "internalType": "address",
          "name": "",
          "type": "address"
        }
      ],
      "payable": false,
      "stateMutability": "view",
      "type": "function"
    },
    {
      "constant": false,
      "inputs": [
        {
          "internalType": "uint256",
          "name": "diceId",
          "type": "uint256"
        }
      ],
      "name": "destroyDice",
      "outputs": [],
      "payable": true,
      "stateMutability": "payable",
      "type": "function"
    },
    {
      "constant": true,
      "inputs": [
        {
          "internalType": "uint256",
          "name": "diceId",
          "type": "uint256"
        }
      ],
      "name": "getPrevOwner",
      "outputs": [
        {
          "internalType": "address",
          "name": "",
          "type": "address"
        }
      ],
      "payable": false,
      "stateMutability": "view",
      "type": "function"
    }
  ],
  "bytecode": "0x60806040526000805534801561001457600080fd5b5061113e806100246000396000f3fe6080604052600436106100c25760003560e01c8063a98c5b711161007f578063c41a360a11610059578063c41a360a14610403578063de2271fe1461047e578063ee2fa39c146104a9578063f2d03fcf146104fe576100c2565b8063a98c5b7114610301578063b7760c8f14610356578063bb4e3f4d146103b1576100c2565b80631e76dcdd146100c75780631f7b4f301461010257806329265db01461013d5780638c8f53a41461016b578063912475ba146101ba578063a819604c146102b2575b600080fd5b3480156100d357600080fd5b50610100600480360360208110156100ea57600080fd5b8101908080359060200190929190505050610579565b005b34801561010e57600080fd5b5061013b6004803603602081101561012557600080fd5b8101908080359060200190929190505050610780565b005b6101696004803603602081101561015357600080fd5b81019080803590602001909291905050506108a1565b005b34801561017757600080fd5b506101a46004803603602081101561018e57600080fd5b8101908080359060200190929190505050610a4b565b6040518082815260200191505060405180910390f35b3480156101c657600080fd5b506101f3600480360360208110156101dd57600080fd5b8101908080359060200190929190505050610a7b565b604051808960ff1660ff1681526020018860ff1660ff1681526020018760ff1660ff16815260200186600181111561022757fe5b60ff1681526020018581526020018473ffffffffffffffffffffffffffffffffffffffff1673ffffffffffffffffffffffffffffffffffffffff1681526020018373ffffffffffffffffffffffffffffffffffffffff1673ffffffffffffffffffffffffffffffffffffffff1681526020018281526020019850505050505050505060405180910390f35b3480156102be57600080fd5b506102eb600480360360208110156102d557600080fd5b8101908080359060200190929190505050610b37565b6040518082815260200191505060405180910390f35b34801561030d57600080fd5b5061033a6004803603602081101561032457600080fd5b8101908080359060200190929190505050610b67565b604051808260ff1660ff16815260200191505060405180910390f35b34801561036257600080fd5b506103af6004803603604081101561037957600080fd5b8101908080359060200190929190803573ffffffffffffffffffffffffffffffffffffffff169060200190929190505050610ba4565b005b6103ed600480360360408110156103c757600080fd5b81019080803560ff169060200190929190803560ff169060200190929190505050610d08565b6040518082815260200191505060405180910390f35b34801561040f57600080fd5b5061043c6004803603602081101561042657600080fd5b8101908080359060200190929190505050610f72565b604051808273ffffffffffffffffffffffffffffffffffffffff1673ffffffffffffffffffffffffffffffffffffffff16815260200191505060405180910390f35b34801561048a57600080fd5b50610493610fc2565b6040518082815260200191505060405180910390f35b3480156104b557600080fd5b506104e2600480360360208110156104cc57600080fd5b8101908080359060200190929190505050610fc8565b604051808260ff1660ff16815260200191505060405180910390f35b34801561050a57600080fd5b506105376004803603602081101561052157600080fd5b8101908080359060200190929190505050611005565b604051808273ffffffffffffffffffffffffffffffffffffffff1673ffffffffffffffffffffffffffffffffffffffff16815260200191505060405180910390f35b803373ffffffffffffffffffffffffffffffffffffffff166001600083815260200190815260200160002060020160009054906101000a900473ffffffffffffffffffffffffffffffffffffffff1673ffffffffffffffffffffffffffffffffffffffff16146105e857600080fd5b8160005481106105f757600080fd5b60006001600085815260200190815260200160002060000160036101000a81548160ff0219169083600181111561062a57fe5b02179055506000600180600086815260200190815260200160002060000160009054906101000a900460ff1660ff166001860142028161066657fe5b06019050806001600086815260200190815260200160002060000160026101000a81548160ff021916908360ff1602179055506001600085815260200190815260200160002060000160009054906101000a900460ff1660ff168160ff161415610735576001806000868152602001908152602001600020600401540160016000868152602001908152602001600020600401819055507f2352c307370c87494ff4d210aed715fb1369dd065db4eb1de29183e96c2af4ec846040518082815260200191505060405180910390a15b7ffca7e5ead94c99a33f4db0e5e7ed5266f833f73d27b83852ab0429662c60f5bf8482604051808381526020018260ff1660ff1681526020019250505060405180910390a150505050565b803373ffffffffffffffffffffffffffffffffffffffff166001600083815260200190815260200160002060020160009054906101000a900473ffffffffffffffffffffffffffffffffffffffff1673ffffffffffffffffffffffffffffffffffffffff16146107ef57600080fd5b8160005481106107fe57600080fd5b600180600085815260200190815260200160002060000160036101000a81548160ff0219169083600181111561083057fe5b021790555060006001600085815260200190815260200160002060000160026101000a81548160ff021916908360ff1602179055507f168812357336ee7b54afff4280d17ba364831e5c2d0eb5a3fa2d2634e5e77a86836040518082815260200191505060405180910390a1505050565b803373ffffffffffffffffffffffffffffffffffffffff166001600083815260200190815260200160002060020160009054906101000a900473ffffffffffffffffffffffffffffffffffffffff1673ffffffffffffffffffffffffffffffffffffffff161461091057600080fd5b81600054811061091f57600080fd5b60006001600085815260200190815260200160002060010154905060016000858152602001908152602001600020600080820160006101000a81549060ff02191690556000820160016101000a81549060ff02191690556000820160026101000a81549060ff02191690556000820160036101000a81549060ff021916905560018201600090556002820160006101000a81549073ffffffffffffffffffffffffffffffffffffffff02191690556003820160006101000a81549073ffffffffffffffffffffffffffffffffffffffff0219169055600482016000905550503373ffffffffffffffffffffffffffffffffffffffff166108fc829081150290604051600060405180830381858888f19350505050158015610a44573d6000803e3d6000fd5b5050505050565b6000816000548110610a5c57600080fd5b6001600084815260200190815260200160002060040154915050919050565b60016020528060005260406000206000915090508060000160009054906101000a900460ff16908060000160019054906101000a900460ff16908060000160029054906101000a900460ff16908060000160039054906101000a900460ff16908060010154908060020160009054906101000a900473ffffffffffffffffffffffffffffffffffffffff16908060030160009054906101000a900473ffffffffffffffffffffffffffffffffffffffff16908060040154905088565b6000816000548110610b4857600080fd5b6001600084815260200190815260200160002060010154915050919050565b6000816000548110610b7857600080fd5b6001600084815260200190815260200160002060000160029054906101000a900460ff16915050919050565b813373ffffffffffffffffffffffffffffffffffffffff166001600083815260200190815260200160002060020160009054906101000a900473ffffffffffffffffffffffffffffffffffffffff1673ffffffffffffffffffffffffffffffffffffffff1614610c1357600080fd5b826000548110610c2257600080fd5b6001600085815260200190815260200160002060020160009054906101000a900473ffffffffffffffffffffffffffffffffffffffff166001600086815260200190815260200160002060030160006101000a81548173ffffffffffffffffffffffffffffffffffffffff021916908373ffffffffffffffffffffffffffffffffffffffff160217905550826001600086815260200190815260200160002060020160006101000a81548173ffffffffffffffffffffffffffffffffffffffff021916908373ffffffffffffffffffffffffffffffffffffffff16021790555050505050565b6000808360ff1611610d1957600080fd5b662386f26fc100003411610d78576040517f08c379a000000000000000000000000000000000000000000000000000000000815260040180806020018281038252602f8152602001806110db602f913960400191505060405180910390fd5b610d80611055565b6040518061010001604052808560ff1681526020018460ff16815260200160018660ff164281610dac57fe5b060160ff16815260200160006001811115610dc357fe5b81526020013481526020013373ffffffffffffffffffffffffffffffffffffffff168152602001600073ffffffffffffffffffffffffffffffffffffffff168152602001600081525090506000806000815480929190600101919050559050816001600083815260200190815260200160002060008201518160000160006101000a81548160ff021916908360ff16021790555060208201518160000160016101000a81548160ff021916908360ff16021790555060408201518160000160026101000a81548160ff021916908360ff16021790555060608201518160000160036101000a81548160ff02191690836001811115610ebd57fe5b02179055506080820151816001015560a08201518160020160006101000a81548173ffffffffffffffffffffffffffffffffffffffff021916908373ffffffffffffffffffffffffffffffffffffffff16021790555060c08201518160030160006101000a81548173ffffffffffffffffffffffffffffffffffffffff021916908373ffffffffffffffffffffffffffffffffffffffff16021790555060e08201518160040155905050809250505092915050565b6000816000548110610f8357600080fd5b6001600084815260200190815260200160002060020160009054906101000a900473ffffffffffffffffffffffffffffffffffffffff16915050919050565b60005481565b6000816000548110610fd957600080fd5b6001600084815260200190815260200160002060000160009054906101000a900460ff16915050919050565b600081600054811061101657600080fd5b6001600084815260200190815260200160002060030160009054906101000a900473ffffffffffffffffffffffffffffffffffffffff16915050919050565b604051806101000160405280600060ff168152602001600060ff168152602001600060ff1681526020016000600181111561108c57fe5b815260200160008152602001600073ffffffffffffffffffffffffffffffffffffffff168152602001600073ffffffffffffffffffffffffffffffffffffffff16815260200160008152509056fe6174206c6561737420302e303120455448206973206e656564656420746f20737061776e2061206e65772064696365a265627a7a723158206c286ad9cc56b251b7b3390774d14f9cb442c6fbad3ac1e38d253c423d48778364736f6c63430005100032",
  "source": "pragma solidity ^0.5.0;\r\n\r\ncontract Dice {\r\n    \r\n    enum diceState { stationary, rolling }\r\n    \r\n    struct dice {\r\n        uint8 numberOfSides;\r\n        uint8 color;\r\n        uint8 currentNumber;\r\n        diceState state;\r\n        uint256 creationValue;\r\n        address owner;\r\n        address prevOwner;\r\n        uint256 luckyTimes; // Ex1\r\n    }\r\n    \r\n    event rolling (uint256 diceId);\r\n    event rolled (uint256 diceId, uint8 newNumber);\r\n    event luckytimesEvent (uint256 diceId);\r\n    \r\n    uint256 public numDices = 0;\r\n    mapping(uint256 => dice) public dices;\r\n\r\n    //function to create a new dice, and add to 'dices' map. requires at least 0.01ETH to create\r\n    function add(\r\n        uint8 numberOfSides,\r\n        uint8 color\r\n    ) public payable returns(uint256) {\r\n        require(numberOfSides > 0);\r\n        require(msg.value > 0.01 ether, \"at least 0.01 ETH is needed to spawn a new dice\");\r\n        \r\n        //new dice object\r\n        dice memory newDice = dice(\r\n            numberOfSides,\r\n            color,\r\n            (uint8)(block.timestamp % numberOfSides) + 1,  //non-secure random number\r\n            diceState.stationary,\r\n            msg.value,\r\n            msg.sender,  //owner\r\n            address(0),\r\n            0 // Ex1\r\n        );\r\n        \r\n        uint256 newDiceId = numDices++;\r\n        dices[newDiceId] = newDice; //commit to state variable\r\n        return newDiceId;   //return new diceId\r\n    }\r\n\r\n    //modifier to ensure a function is callable only by its owner    \r\n    modifier ownerOnly(uint256 diceId) {\r\n        require(dices[diceId].owner == msg.sender);\r\n        _;\r\n    }\r\n    \r\n    modifier validDiceId(uint256 diceId) {\r\n        require(diceId < numDices);\r\n        _;\r\n    }\r\n\r\n    //owner can roll a dice    \r\n    function roll(uint256 diceId) public ownerOnly(diceId) validDiceId(diceId) {\r\n            dices[diceId].state = diceState.rolling;    //set state to rolling\r\n            dices[diceId].currentNumber = 0;    //number will become 0 while rolling\r\n            emit rolling(diceId);   //emit rolling event\r\n    }\r\n\r\n    function stopRoll(uint256 diceId) public ownerOnly(diceId) validDiceId(diceId) {\r\n            dices[diceId].state = diceState.stationary; //set state to stationary\r\n            \r\n            //this is not a secure randomization\r\n            uint8 newNumber = (uint8)((block.timestamp*(diceId+1)) % dices[diceId].numberOfSides) + 1;\r\n            dices[diceId].currentNumber = newNumber;\r\n\r\n            // LUCKY TIMES\r\n            if (newNumber == dices[diceId].numberOfSides) {\r\n                dices[diceId].luckyTimes = dices[diceId].luckyTimes + 1;\r\n                emit luckytimesEvent(diceId);\r\n            }\r\n            emit rolled(diceId, newNumber); //emit rolled\r\n    }\r\n    \r\n    //transfer ownership to new owner\r\n    function transfer(uint256 diceId, address newOwner) public ownerOnly(diceId) validDiceId(diceId) {\r\n        dices[diceId].prevOwner = dices[diceId].owner;\r\n        dices[diceId].owner = newOwner;\r\n    }\r\n\r\n    //get number of sides of dice    \r\n    function getDiceSides(uint256 diceId) public view validDiceId(diceId) returns (uint8) {\r\n        return dices[diceId].numberOfSides;\r\n    }\r\n\r\n    //get current dice number\r\n    function getDiceNumber(uint256 diceId) public view validDiceId(diceId) returns (uint8) {\r\n        return dices[diceId].currentNumber;\r\n    }\r\n\r\n    //get ether put in during creation\r\n    function getDiceValue(uint256 diceId) public view validDiceId(diceId) returns (uint256) {\r\n        return dices[diceId].creationValue;\r\n    }\r\n\r\n    //Ex1 Get luckyTimes\r\n    function getLuckyTimes(uint256 diceId) public view validDiceId(diceId) returns (uint256) {\r\n        return dices[diceId].luckyTimes;\r\n    }\r\n\r\n    function getOwner(uint256 diceId) public view validDiceId(diceId) returns (address) {\r\n        return dices[diceId].owner;\r\n    }\r\n\r\n    //Ex 1 Destroy Dice\r\n    function destroyDice(uint256 diceId) payable public ownerOnly(diceId) validDiceId(diceId) {\r\n        uint256 value = dices[diceId].creationValue;\r\n        delete dices[diceId]; // Remove from mapping\r\n        msg.sender.transfer(value); // Return value\r\n    }\r\n    \r\n    function getPrevOwner(uint256 diceId) public view validDiceId(diceId) returns (address) {\r\n        return dices[diceId].prevOwner;\r\n    }\r\n}\r\n",
  "sourcePath": "C:\\Users\\Raihan\\Documents\\VSCode_Workspace\\IS4302 Blockchain\\lab4\\contracts\\Dice.sol",
  "compiler": {
    "name": "solc",
    "version": "0.5.16+commit.9c3226ce.Emscripten.clang"
  },
  "schemaVersion": "3.4.4",
  "updatedAt": "2022-02-14T08:05:03.595Z",
  "networkType": "ethereum",
  "devdoc": {
    "methods": {}
  },
  "userdoc": {
    "methods": {}
  }
}